{
  "_format": "hh-sol-artifact-1",
  "contractName": "DeBeToken",
  "sourceName": "contracts/DeBeToken.sol",
  "abi": [
    {
      "inputs": [],
      "stateMutability": "nonpayable",
      "type": "constructor"
    },
    {
      "anonymous": false,
      "inputs": [
        {
          "indexed": true,
          "internalType": "address",
          "name": "owner",
          "type": "address"
        },
        {
          "indexed": true,
          "internalType": "address",
          "name": "spender",
          "type": "address"
        },
        {
          "indexed": false,
          "internalType": "uint256",
          "name": "value",
          "type": "uint256"
        }
      ],
      "name": "Approval",
      "type": "event"
    },
    {
      "anonymous": false,
      "inputs": [
        {
          "indexed": true,
          "internalType": "address",
          "name": "delegator",
          "type": "address"
        },
        {
          "indexed": true,
          "internalType": "address",
          "name": "fromDelegate",
          "type": "address"
        },
        {
          "indexed": true,
          "internalType": "address",
          "name": "toDelegate",
          "type": "address"
        }
      ],
      "name": "DelegateChanged",
      "type": "event"
    },
    {
      "anonymous": false,
      "inputs": [
        {
          "indexed": true,
          "internalType": "address",
          "name": "delegate",
          "type": "address"
        },
        {
          "indexed": false,
          "internalType": "uint256",
          "name": "previousBalance",
          "type": "uint256"
        },
        {
          "indexed": false,
          "internalType": "uint256",
          "name": "newBalance",
          "type": "uint256"
        }
      ],
      "name": "DelegateVotesChanged",
      "type": "event"
    },
    {
      "anonymous": false,
      "inputs": [
        {
          "indexed": true,
          "internalType": "address",
          "name": "previousOwner",
          "type": "address"
        },
        {
          "indexed": true,
          "internalType": "address",
          "name": "newOwner",
          "type": "address"
        }
      ],
      "name": "OwnershipTransferred",
      "type": "event"
    },
    {
      "anonymous": false,
      "inputs": [
        {
          "indexed": false,
          "internalType": "uint256",
          "name": "id",
          "type": "uint256"
        }
      ],
      "name": "Snapshot",
      "type": "event"
    },
    {
      "anonymous": false,
      "inputs": [
        {
          "indexed": true,
          "internalType": "address",
          "name": "from",
          "type": "address"
        },
        {
          "indexed": true,
          "internalType": "address",
          "name": "to",
          "type": "address"
        },
        {
          "indexed": false,
          "internalType": "uint256",
          "name": "value",
          "type": "uint256"
        }
      ],
      "name": "Transfer",
      "type": "event"
    },
    {
      "inputs": [],
      "name": "DOMAIN_SEPARATOR",
      "outputs": [
        {
          "internalType": "bytes32",
          "name": "",
          "type": "bytes32"
        }
      ],
      "stateMutability": "view",
      "type": "function"
    },
    {
      "inputs": [
        {
          "internalType": "address",
          "name": "owner",
          "type": "address"
        },
        {
          "internalType": "address",
          "name": "spender",
          "type": "address"
        }
      ],
      "name": "allowance",
      "outputs": [
        {
          "internalType": "uint256",
          "name": "",
          "type": "uint256"
        }
      ],
      "stateMutability": "view",
      "type": "function"
    },
    {
      "inputs": [
        {
          "internalType": "address",
          "name": "spender",
          "type": "address"
        },
        {
          "internalType": "uint256",
          "name": "amount",
          "type": "uint256"
        }
      ],
      "name": "approve",
      "outputs": [
        {
          "internalType": "bool",
          "name": "",
          "type": "bool"
        }
      ],
      "stateMutability": "nonpayable",
      "type": "function"
    },
    {
      "inputs": [
        {
          "internalType": "address",
          "name": "account",
          "type": "address"
        }
      ],
      "name": "balanceOf",
      "outputs": [
        {
          "internalType": "uint256",
          "name": "",
          "type": "uint256"
        }
      ],
      "stateMutability": "view",
      "type": "function"
    },
    {
      "inputs": [
        {
          "internalType": "address",
          "name": "account",
          "type": "address"
        },
        {
          "internalType": "uint256",
          "name": "snapshotId",
          "type": "uint256"
        }
      ],
      "name": "balanceOfAt",
      "outputs": [
        {
          "internalType": "uint256",
          "name": "",
          "type": "uint256"
        }
      ],
      "stateMutability": "view",
      "type": "function"
    },
    {
      "inputs": [
        {
          "internalType": "uint256",
          "name": "amount",
          "type": "uint256"
        }
      ],
      "name": "burn",
      "outputs": [],
      "stateMutability": "nonpayable",
      "type": "function"
    },
    {
      "inputs": [
        {
          "internalType": "address",
          "name": "account",
          "type": "address"
        },
        {
          "internalType": "uint256",
          "name": "amount",
          "type": "uint256"
        }
      ],
      "name": "burnFrom",
      "outputs": [],
      "stateMutability": "nonpayable",
      "type": "function"
    },
    {
      "inputs": [
        {
          "internalType": "address",
          "name": "account",
          "type": "address"
        },
        {
          "internalType": "uint32",
          "name": "pos",
          "type": "uint32"
        }
      ],
      "name": "checkpoints",
      "outputs": [
        {
          "components": [
            {
              "internalType": "uint32",
              "name": "fromBlock",
              "type": "uint32"
            },
            {
              "internalType": "uint224",
              "name": "votes",
              "type": "uint224"
            }
          ],
          "internalType": "struct ERC20Votes.Checkpoint",
          "name": "",
          "type": "tuple"
        }
      ],
      "stateMutability": "view",
      "type": "function"
    },
    {
      "inputs": [],
      "name": "decimals",
      "outputs": [
        {
          "internalType": "uint8",
          "name": "",
          "type": "uint8"
        }
      ],
      "stateMutability": "view",
      "type": "function"
    },
    {
      "inputs": [
        {
          "internalType": "address",
          "name": "spender",
          "type": "address"
        },
        {
          "internalType": "uint256",
          "name": "subtractedValue",
          "type": "uint256"
        }
      ],
      "name": "decreaseAllowance",
      "outputs": [
        {
          "internalType": "bool",
          "name": "",
          "type": "bool"
        }
      ],
      "stateMutability": "nonpayable",
      "type": "function"
    },
    {
      "inputs": [
        {
          "internalType": "address",
          "name": "delegatee",
          "type": "address"
        }
      ],
      "name": "delegate",
      "outputs": [],
      "stateMutability": "nonpayable",
      "type": "function"
    },
    {
      "inputs": [
        {
          "internalType": "address",
          "name": "delegatee",
          "type": "address"
        },
        {
          "internalType": "uint256",
          "name": "nonce",
          "type": "uint256"
        },
        {
          "internalType": "uint256",
          "name": "expiry",
          "type": "uint256"
        },
        {
          "internalType": "uint8",
          "name": "v",
          "type": "uint8"
        },
        {
          "internalType": "bytes32",
          "name": "r",
          "type": "bytes32"
        },
        {
          "internalType": "bytes32",
          "name": "s",
          "type": "bytes32"
        }
      ],
      "name": "delegateBySig",
      "outputs": [],
      "stateMutability": "nonpayable",
      "type": "function"
    },
    {
      "inputs": [
        {
          "internalType": "address",
          "name": "account",
          "type": "address"
        }
      ],
      "name": "delegates",
      "outputs": [
        {
          "internalType": "address",
          "name": "",
          "type": "address"
        }
      ],
      "stateMutability": "view",
      "type": "function"
    },
    {
      "inputs": [
        {
          "internalType": "uint256",
          "name": "blockNumber",
          "type": "uint256"
        }
      ],
      "name": "getPastTotalSupply",
      "outputs": [
        {
          "internalType": "uint256",
          "name": "",
          "type": "uint256"
        }
      ],
      "stateMutability": "view",
      "type": "function"
    },
    {
      "inputs": [
        {
          "internalType": "address",
          "name": "account",
          "type": "address"
        },
        {
          "internalType": "uint256",
          "name": "blockNumber",
          "type": "uint256"
        }
      ],
      "name": "getPastVotes",
      "outputs": [
        {
          "internalType": "uint256",
          "name": "",
          "type": "uint256"
        }
      ],
      "stateMutability": "view",
      "type": "function"
    },
    {
      "inputs": [
        {
          "internalType": "address",
          "name": "account",
          "type": "address"
        }
      ],
      "name": "getVotes",
      "outputs": [
        {
          "internalType": "uint256",
          "name": "",
          "type": "uint256"
        }
      ],
      "stateMutability": "view",
      "type": "function"
    },
    {
      "inputs": [
        {
          "internalType": "address",
          "name": "spender",
          "type": "address"
        },
        {
          "internalType": "uint256",
          "name": "addedValue",
          "type": "uint256"
        }
      ],
      "name": "increaseAllowance",
      "outputs": [
        {
          "internalType": "bool",
          "name": "",
          "type": "bool"
        }
      ],
      "stateMutability": "nonpayable",
      "type": "function"
    },
    {
      "inputs": [
        {
          "internalType": "address",
          "name": "to",
          "type": "address"
        },
        {
          "internalType": "uint256",
          "name": "amount",
          "type": "uint256"
        }
      ],
      "name": "mint",
      "outputs": [],
      "stateMutability": "nonpayable",
      "type": "function"
    },
    {
      "inputs": [],
      "name": "name",
      "outputs": [
        {
          "internalType": "string",
          "name": "",
          "type": "string"
        }
      ],
      "stateMutability": "view",
      "type": "function"
    },
    {
      "inputs": [
        {
          "internalType": "address",
          "name": "owner",
          "type": "address"
        }
      ],
      "name": "nonces",
      "outputs": [
        {
          "internalType": "uint256",
          "name": "",
          "type": "uint256"
        }
      ],
      "stateMutability": "view",
      "type": "function"
    },
    {
      "inputs": [
        {
          "internalType": "address",
          "name": "account",
          "type": "address"
        }
      ],
      "name": "numCheckpoints",
      "outputs": [
        {
          "internalType": "uint32",
          "name": "",
          "type": "uint32"
        }
      ],
      "stateMutability": "view",
      "type": "function"
    },
    {
      "inputs": [],
      "name": "owner",
      "outputs": [
        {
          "internalType": "address",
          "name": "",
          "type": "address"
        }
      ],
      "stateMutability": "view",
      "type": "function"
    },
    {
      "inputs": [
        {
          "internalType": "address",
          "name": "owner",
          "type": "address"
        },
        {
          "internalType": "address",
          "name": "spender",
          "type": "address"
        },
        {
          "internalType": "uint256",
          "name": "value",
          "type": "uint256"
        },
        {
          "internalType": "uint256",
          "name": "deadline",
          "type": "uint256"
        },
        {
          "internalType": "uint8",
          "name": "v",
          "type": "uint8"
        },
        {
          "internalType": "bytes32",
          "name": "r",
          "type": "bytes32"
        },
        {
          "internalType": "bytes32",
          "name": "s",
          "type": "bytes32"
        }
      ],
      "name": "permit",
      "outputs": [],
      "stateMutability": "nonpayable",
      "type": "function"
    },
    {
      "inputs": [],
      "name": "renounceOwnership",
      "outputs": [],
      "stateMutability": "nonpayable",
      "type": "function"
    },
    {
      "inputs": [],
      "name": "snapshot",
      "outputs": [],
      "stateMutability": "nonpayable",
      "type": "function"
    },
    {
      "inputs": [],
      "name": "symbol",
      "outputs": [
        {
          "internalType": "string",
          "name": "",
          "type": "string"
        }
      ],
      "stateMutability": "view",
      "type": "function"
    },
    {
      "inputs": [],
      "name": "totalSupply",
      "outputs": [
        {
          "internalType": "uint256",
          "name": "",
          "type": "uint256"
        }
      ],
      "stateMutability": "view",
      "type": "function"
    },
    {
      "inputs": [
        {
          "internalType": "uint256",
          "name": "snapshotId",
          "type": "uint256"
        }
      ],
      "name": "totalSupplyAt",
      "outputs": [
        {
          "internalType": "uint256",
          "name": "",
          "type": "uint256"
        }
      ],
      "stateMutability": "view",
      "type": "function"
    },
    {
      "inputs": [
        {
          "internalType": "address",
          "name": "to",
          "type": "address"
        },
        {
          "internalType": "uint256",
          "name": "amount",
          "type": "uint256"
        }
      ],
      "name": "transfer",
      "outputs": [
        {
          "internalType": "bool",
          "name": "",
          "type": "bool"
        }
      ],
      "stateMutability": "nonpayable",
      "type": "function"
    },
    {
      "inputs": [
        {
          "internalType": "address",
          "name": "from",
          "type": "address"
        },
        {
          "internalType": "address",
          "name": "to",
          "type": "address"
        },
        {
          "internalType": "uint256",
          "name": "amount",
          "type": "uint256"
        }
      ],
      "name": "transferFrom",
      "outputs": [
        {
          "internalType": "bool",
          "name": "",
          "type": "bool"
        }
      ],
      "stateMutability": "nonpayable",
      "type": "function"
    },
    {
      "inputs": [
        {
          "internalType": "address",
          "name": "newOwner",
          "type": "address"
        }
      ],
      "name": "transferOwnership",
      "outputs": [],
      "stateMutability": "nonpayable",
      "type": "function"
    }
  ],
  "bytecode": "0x6101606040527f6e71edae12b1b97f4d1f60370fef10105fa2faae0126114a169c64845d6126c9610140908152503480156200003a57600080fd5b506040518060400160405280601b81526020017f446563656e7472616c697a65642042657474696e6720546f6b656e0000000000815250806040518060400160405280600181526020017f31000000000000000000000000000000000000000000000000000000000000008152506040518060400160405280601b81526020017f446563656e7472616c697a65642042657474696e6720546f6b656e00000000008152506040518060400160405280600481526020017f444542450000000000000000000000000000000000000000000000000000000081525081600390805190602001906200012c92919062000ff6565b5080600490805190602001906200014592919062000ff6565b505050620001686200015c6200024160201b60201c565b6200024960201b60201c565b60008280519060200120905060008280519060200120905060007f8b73c3c69bb8fe3d512ecc4cf759cc79239f7b179b0ffacaa9a75d522b39400f90508260e081815250508161010081815250504660a08181525050620001d18184846200030f60201b60201c565b608081815250503073ffffffffffffffffffffffffffffffffffffffff1660c08173ffffffffffffffffffffffffffffffffffffffff1660601b815250508061012081815250505050505050506200023b336a52b7d2dcc80cd2e40000006200034b60201b60201c565b6200153f565b600033905090565b6000600960009054906101000a900473ffffffffffffffffffffffffffffffffffffffff16905081600960006101000a81548173ffffffffffffffffffffffffffffffffffffffff021916908373ffffffffffffffffffffffffffffffffffffffff1602179055508173ffffffffffffffffffffffffffffffffffffffff168173ffffffffffffffffffffffffffffffffffffffff167f8be0079c531659141344cd1fd0a4f28419497f9722a3daafe3b4186f6b6457e060405160405180910390a35050565b600083838346306040516020016200032c95949392919062001175565b6040516020818303038152906040528051906020012090509392505050565b6200036282826200036660201b620014e21760201c565b5050565b6200037d82826200042460201b6200156f1760201c565b6200038d6200059d60201b60201c565b7bffffffffffffffffffffffffffffffffffffffffffffffffffffffff16620003bb620005c160201b60201c565b1115620003ff576040517f08c379a0000000000000000000000000000000000000000000000000000000008152600401620003f690620011d2565b60405180910390fd5b6200041e600d620005cb60201b620016cf1783620005e360201b60201c565b50505050565b600073ffffffffffffffffffffffffffffffffffffffff168273ffffffffffffffffffffffffffffffffffffffff16141562000497576040517f08c379a00000000000000000000000000000000000000000000000000000000081526004016200048e9062001238565b60405180910390fd5b620004ab600083836200090060201b60201c565b8060026000828254620004bf9190620012b5565b92505081905550806000808473ffffffffffffffffffffffffffffffffffffffff1673ffffffffffffffffffffffffffffffffffffffff1681526020019081526020016000206000828254620005169190620012b5565b925050819055508173ffffffffffffffffffffffffffffffffffffffff16600073ffffffffffffffffffffffffffffffffffffffff167fddf252ad1be2c89b69c2b068fc378daa952ba7f163c4a11628f55a4df523b3ef836040516200057d91906200125a565b60405180910390a362000599600083836200091d60201b60201c565b5050565b60007bffffffffffffffffffffffffffffffffffffffffffffffffffffffff905090565b6000600254905090565b60008183620005db9190620012b5565b905092915050565b600080600085805490509050600081146200067c578560018262000608919062001312565b8154811062000640577f4e487b7100000000000000000000000000000000000000000000000000000000600052603260045260246000fd5b9060005260206000200160000160049054906101000a90047bffffffffffffffffffffffffffffffffffffffffffffffffffffffff166200067f565b60005b7bffffffffffffffffffffffffffffffffffffffffffffffffffffffff169250620006ab83858760201c565b91506000811180156200072857504386600183620006ca919062001312565b8154811062000702577f4e487b7100000000000000000000000000000000000000000000000000000000600052603260045260246000fd5b9060005260206000200160000160009054906101000a900463ffffffff1663ffffffff16145b15620007ed5762000744826200093a60201b620016e51760201c565b8660018362000754919062001312565b815481106200078c577f4e487b7100000000000000000000000000000000000000000000000000000000600052603260045260246000fd5b9060005260206000200160000160046101000a8154817bffffffffffffffffffffffffffffffffffffffffffffffffffffffff02191690837bffffffffffffffffffffffffffffffffffffffffffffffffffffffff160217905550620008f7565b8560405180604001604052806200080f43620009a860201b620017501760201c565b63ffffffff16815260200162000830856200093a60201b620016e51760201c565b7bffffffffffffffffffffffffffffffffffffffffffffffffffffffff168152509080600181540180825580915050600190039060005260206000200160009091909190915060008201518160000160006101000a81548163ffffffff021916908363ffffffff16021790555060208201518160000160046101000a8154817bffffffffffffffffffffffffffffffffffffffffffffffffffffffff02191690837bffffffffffffffffffffffffffffffffffffffffffffffffffffffff16021790555050505b50935093915050565b62000918838383620009fe60201b620017a31760201c565b505050565b6200093583838362000af960201b6200185d1760201c565b505050565b60007bffffffffffffffffffffffffffffffffffffffffffffffffffffffff8016821115620009a0576040517f08c379a00000000000000000000000000000000000000000000000000000000081526004016200099790620011f4565b60405180910390fd5b819050919050565b600063ffffffff8016821115620009f6576040517f08c379a0000000000000000000000000000000000000000000000000000000008152600401620009ed9062001216565b60405180910390fd5b819050919050565b62000a1683838362000b4960201b620018881760201c565b600073ffffffffffffffffffffffffffffffffffffffff168373ffffffffffffffffffffffffffffffffffffffff16141562000a735762000a5d8262000b4e60201b60201c565b62000a6d62000bb160201b60201c565b62000af4565b600073ffffffffffffffffffffffffffffffffffffffff168273ffffffffffffffffffffffffffffffffffffffff16141562000ad05762000aba8362000b4e60201b60201c565b62000aca62000bb160201b60201c565b62000af3565b62000ae18362000b4e60201b60201c565b62000af28262000b4e60201b60201c565b5b5b505050565b62000b1183838362000bd560201b6200188d1760201c565b62000b4462000b268462000bda60201b60201c565b62000b378462000bda60201b60201c565b8362000c4360201b60201c565b505050565b505050565b62000bae600560008373ffffffffffffffffffffffffffffffffffffffff1673ffffffffffffffffffffffffffffffffffffffff16815260200190815260200160002062000ba28362000e6660201b60201c565b62000eae60201b60201c565b50565b62000bd3600662000bc7620005c160201b60201c565b62000eae60201b60201c565b565b505050565b6000600b60008373ffffffffffffffffffffffffffffffffffffffff1673ffffffffffffffffffffffffffffffffffffffff16815260200190815260200160002060009054906101000a900473ffffffffffffffffffffffffffffffffffffffff169050919050565b8173ffffffffffffffffffffffffffffffffffffffff168373ffffffffffffffffffffffffffffffffffffffff161415801562000c805750600081115b1562000e6157600073ffffffffffffffffffffffffffffffffffffffff168373ffffffffffffffffffffffffffffffffffffffff161462000d735760008062000d1a600c60008773ffffffffffffffffffffffffffffffffffffffff1673ffffffffffffffffffffffffffffffffffffffff16815260200190815260200160002062000f3a60201b620018921785620005e360201b60201c565b915091508473ffffffffffffffffffffffffffffffffffffffff167fdec2bacdd2f05b59de34da9b523dff8be42e5e38e818c82fdb0bae774387a724838360405162000d6892919062001277565b60405180910390a250505b600073ffffffffffffffffffffffffffffffffffffffff168273ffffffffffffffffffffffffffffffffffffffff161462000e605760008062000e07600c60008673ffffffffffffffffffffffffffffffffffffffff1673ffffffffffffffffffffffffffffffffffffffff168152602001908152602001600020620005cb60201b620016cf1785620005e360201b60201c565b915091508373ffffffffffffffffffffffffffffffffffffffff167fdec2bacdd2f05b59de34da9b523dff8be42e5e38e818c82fdb0bae774387a724838360405162000e5592919062001277565b60405180910390a250505b5b505050565b60008060008373ffffffffffffffffffffffffffffffffffffffff1673ffffffffffffffffffffffffffffffffffffffff168152602001908152602001600020549050919050565b600062000ec062000f5260201b60201c565b90508062000ed78460000162000f7060201b60201c565b101562000f355782600001819080600181540180825580915050600190039060005260206000200160009091909190915055826001018290806001815401808255809150506001900390600052602060002001600090919091909150555b505050565b6000818362000f4a919062001312565b905092915050565b600062000f6b600862000fe860201b620018a81760201c565b905090565b6000808280549050141562000f89576000905062000fe3565b816001838054905062000f9d919062001312565b8154811062000fd5577f4e487b7100000000000000000000000000000000000000000000000000000000600052603260045260246000fd5b906000526020600020015490505b919050565b600081600001549050919050565b828054620010049062001395565b90600052602060002090601f01602090048101928262001028576000855562001074565b82601f106200104357805160ff191683800117855562001074565b8280016001018555821562001074579182015b828111156200107357825182559160200191906001019062001056565b5b50905062001083919062001087565b5090565b5b80821115620010a257600081600090555060010162001088565b5090565b620010b1816200134d565b82525050565b620010c28162001361565b82525050565b6000620010d7603083620012a4565b9150620010e48262001429565b604082019050919050565b6000620010fe602783620012a4565b91506200110b8262001478565b604082019050919050565b600062001125602683620012a4565b91506200113282620014c7565b604082019050919050565b60006200114c601f83620012a4565b9150620011598262001516565b602082019050919050565b6200116f816200138b565b82525050565b600060a0820190506200118c6000830188620010b7565b6200119b6020830187620010b7565b620011aa6040830186620010b7565b620011b9606083018562001164565b620011c86080830184620010a6565b9695505050505050565b60006020820190508181036000830152620011ed81620010c8565b9050919050565b600060208201905081810360008301526200120f81620010ef565b9050919050565b60006020820190508181036000830152620012318162001116565b9050919050565b6000602082019050818103600083015262001253816200113d565b9050919050565b600060208201905062001271600083018462001164565b92915050565b60006040820190506200128e600083018562001164565b6200129d602083018462001164565b9392505050565b600082825260208201905092915050565b6000620012c2826200138b565b9150620012cf836200138b565b9250827fffffffffffffffffffffffffffffffffffffffffffffffffffffffffffffffff03821115620013075762001306620013cb565b5b828201905092915050565b60006200131f826200138b565b91506200132c836200138b565b925082821015620013425762001341620013cb565b5b828203905092915050565b60006200135a826200136b565b9050919050565b6000819050919050565b600073ffffffffffffffffffffffffffffffffffffffff82169050919050565b6000819050919050565b60006002820490506001821680620013ae57607f821691505b60208210811415620013c557620013c4620013fa565b5b50919050565b7f4e487b7100000000000000000000000000000000000000000000000000000000600052601160045260246000fd5b7f4e487b7100000000000000000000000000000000000000000000000000000000600052602260045260246000fd5b7f4552433230566f7465733a20746f74616c20737570706c79207269736b73206f60008201527f766572666c6f77696e6720766f74657300000000000000000000000000000000602082015250565b7f53616665436173743a2076616c756520646f65736e27742066697420696e203260008201527f3234206269747300000000000000000000000000000000000000000000000000602082015250565b7f53616665436173743a2076616c756520646f65736e27742066697420696e203360008201527f3220626974730000000000000000000000000000000000000000000000000000602082015250565b7f45524332303a206d696e7420746f20746865207a65726f206164647265737300600082015250565b60805160a05160c05160601c60e0516101005161012051610140516149e66200159d600039600061113201526000611e4401526000611e8601526000611e6501526000611d9a01526000611df001526000611e1901526149e66000f3fe608060405234801561001057600080fd5b50600436106101e55760003560e01c8063715018a61161010f5780639ab24eb0116100a2578063d505accf11610071578063d505accf146105de578063dd62ed3e146105fa578063f1127ed81461062a578063f2fde38b1461065a576101e5565b80639ab24eb014610532578063a457c2d714610562578063a9059cbb14610592578063c3cda520146105c2576101e5565b80638e539e8c116100de5780638e539e8c146104aa57806395d89b41146104da5780639711715a146104f8578063981b24d014610502576101e5565b8063715018a61461043657806379cc6790146104405780637ecebe001461045c5780638da5cb5b1461048c576101e5565b80633a46b1a811610187578063587cde1e11610156578063587cde1e1461038a5780635c19a95c146103ba5780636fcfff45146103d657806370a0823114610406576101e5565b80633a46b1a8146102f257806340c10f191461032257806342966c681461033e5780634ee2cd7e1461035a576101e5565b806323b872dd116101c357806323b872dd14610256578063313ce567146102865780633644e515146102a457806339509351146102c2576101e5565b806306fdde03146101ea578063095ea7b31461020857806318160ddd14610238575b600080fd5b6101f2610676565b6040516101ff9190613c59565b60405180910390f35b610222600480360381019061021d91906134c1565b610708565b60405161022f9190613ae5565b60405180910390f35b61024061072b565b60405161024d9190613fd6565b60405180910390f35b610270600480360381019061026b91906133d4565b610735565b60405161027d9190613ae5565b60405180910390f35b61028e610764565b60405161029b9190614035565b60405180910390f35b6102ac61076d565b6040516102b99190613b00565b60405180910390f35b6102dc60048036038101906102d791906134c1565b61077c565b6040516102e99190613ae5565b60405180910390f35b61030c600480360381019061030791906134c1565b610826565b6040516103199190613fd6565b60405180910390f35b61033c600480360381019061033791906134c1565b6108ba565b005b610358600480360381019061035391906135c2565b610944565b005b610374600480360381019061036f91906134c1565b610958565b6040516103819190613fd6565b60405180910390f35b6103a4600480360381019061039f919061336f565b6109c8565b6040516103b19190613aca565b60405180910390f35b6103d460048036038101906103cf919061336f565b610a31565b005b6103f060048036038101906103eb919061336f565b610a45565b6040516103fd919061401a565b60405180910390f35b610420600480360381019061041b919061336f565b610a99565b60405161042d9190613fd6565b60405180910390f35b61043e610ae1565b005b61045a600480360381019061045591906134c1565b610b69565b005b6104766004803603810190610471919061336f565b610b89565b6040516104839190613fd6565b60405180910390f35b610494610bd9565b6040516104a19190613aca565b60405180910390f35b6104c460048036038101906104bf91906135c2565b610c03565b6040516104d19190613fd6565b60405180910390f35b6104e2610c59565b6040516104ef9190613c59565b60405180910390f35b610500610ceb565b005b61051c600480360381019061051791906135c2565b610d72565b6040516105299190613fd6565b60405180910390f35b61054c6004803603810190610547919061336f565b610da3565b6040516105599190613fd6565b60405180910390f35b61057c600480360381019061057791906134c1565b610eda565b6040516105899190613ae5565b60405180910390f35b6105ac60048036038101906105a791906134c1565b610fc4565b6040516105b99190613ae5565b60405180910390f35b6105dc60048036038101906105d791906134fd565b610fe7565b005b6105f860048036038101906105f39190613423565b6110eb565b005b610614600480360381019061060f9190613398565b61122d565b6040516106219190613fd6565b60405180910390f35b610644600480360381019061063f9190613586565b6112b4565b6040516106519190613fbb565b60405180910390f35b610674600480360381019061066f919061336f565b6113ea565b005b606060038054610685906141fc565b80601f01602080910402602001604051908101604052809291908181526020018280546106b1906141fc565b80156106fe5780601f106106d3576101008083540402835291602001916106fe565b820191906000526020600020905b8154815290600101906020018083116106e157829003601f168201915b5050505050905090565b6000806107136118b6565b90506107208185856118be565b600191505092915050565b6000600254905090565b6000806107406118b6565b905061074d858285611a89565b610758858585611b15565b60019150509392505050565b60006012905090565b6000610777611d96565b905090565b6000806107876118b6565b905061081b818585600160008673ffffffffffffffffffffffffffffffffffffffff1673ffffffffffffffffffffffffffffffffffffffff16815260200190815260200160002060008973ffffffffffffffffffffffffffffffffffffffff1673ffffffffffffffffffffffffffffffffffffffff168152602001908152602001600020546108169190614077565b6118be565b600191505092915050565b600043821061086a576040517f08c379a000000000000000000000000000000000000000000000000000000000815260040161086190613cdb565b60405180910390fd5b6108b2600c60008573ffffffffffffffffffffffffffffffffffffffff1673ffffffffffffffffffffffffffffffffffffffff16815260200190815260200160002083611eb0565b905092915050565b6108c26118b6565b73ffffffffffffffffffffffffffffffffffffffff166108e0610bd9565b73ffffffffffffffffffffffffffffffffffffffff1614610936576040517f08c379a000000000000000000000000000000000000000000000000000000000815260040161092d90613e9b565b60405180910390fd5b6109408282612008565b5050565b61095561094f6118b6565b82612016565b50565b60008060006109a584600560008873ffffffffffffffffffffffffffffffffffffffff1673ffffffffffffffffffffffffffffffffffffffff168152602001908152602001600020612024565b91509150816109bc576109b785610a99565b6109be565b805b9250505092915050565b6000600b60008373ffffffffffffffffffffffffffffffffffffffff1673ffffffffffffffffffffffffffffffffffffffff16815260200190815260200160002060009054906101000a900473ffffffffffffffffffffffffffffffffffffffff169050919050565b610a42610a3c6118b6565b82612140565b50565b6000610a92600c60008473ffffffffffffffffffffffffffffffffffffffff1673ffffffffffffffffffffffffffffffffffffffff16815260200190815260200160002080549050611750565b9050919050565b60008060008373ffffffffffffffffffffffffffffffffffffffff1673ffffffffffffffffffffffffffffffffffffffff168152602001908152602001600020549050919050565b610ae96118b6565b73ffffffffffffffffffffffffffffffffffffffff16610b07610bd9565b73ffffffffffffffffffffffffffffffffffffffff1614610b5d576040517f08c379a0000000000000000000000000000000000000000000000000000000008152600401610b5490613e9b565b60405180910390fd5b610b67600061225a565b565b610b7b82610b756118b6565b83611a89565b610b858282612016565b5050565b6000610bd2600a60008473ffffffffffffffffffffffffffffffffffffffff1673ffffffffffffffffffffffffffffffffffffffff1681526020019081526020016000206118a8565b9050919050565b6000600960009054906101000a900473ffffffffffffffffffffffffffffffffffffffff16905090565b6000438210610c47576040517f08c379a0000000000000000000000000000000000000000000000000000000008152600401610c3e90613cdb565b60405180910390fd5b610c52600d83611eb0565b9050919050565b606060048054610c68906141fc565b80601f0160208091040260200160405190810160405280929190818152602001828054610c94906141fc565b8015610ce15780601f10610cb657610100808354040283529160200191610ce1565b820191906000526020600020905b815481529060010190602001808311610cc457829003601f168201915b5050505050905090565b610cf36118b6565b73ffffffffffffffffffffffffffffffffffffffff16610d11610bd9565b73ffffffffffffffffffffffffffffffffffffffff1614610d67576040517f08c379a0000000000000000000000000000000000000000000000000000000008152600401610d5e90613e9b565b60405180910390fd5b610d6f612320565b50565b6000806000610d82846006612024565b9150915081610d9857610d9361072b565b610d9a565b805b92505050919050565b600080600c60008473ffffffffffffffffffffffffffffffffffffffff1673ffffffffffffffffffffffffffffffffffffffff16815260200190815260200160002080549050905060008114610eb157600c60008473ffffffffffffffffffffffffffffffffffffffff1673ffffffffffffffffffffffffffffffffffffffff168152602001908152602001600020600182610e3f91906140fe565b81548110610e76577f4e487b7100000000000000000000000000000000000000000000000000000000600052603260045260246000fd5b9060005260206000200160000160049054906101000a90047bffffffffffffffffffffffffffffffffffffffffffffffffffffffff16610eb4565b60005b7bffffffffffffffffffffffffffffffffffffffffffffffffffffffff16915050919050565b600080610ee56118b6565b90506000600160008373ffffffffffffffffffffffffffffffffffffffff1673ffffffffffffffffffffffffffffffffffffffff16815260200190815260200160002060008673ffffffffffffffffffffffffffffffffffffffff1673ffffffffffffffffffffffffffffffffffffffff16815260200190815260200160002054905083811015610fab576040517f08c379a0000000000000000000000000000000000000000000000000000000008152600401610fa290613f7b565b60405180910390fd5b610fb882868684036118be565b60019250505092915050565b600080610fcf6118b6565b9050610fdc818585611b15565b600191505092915050565b8342111561102a576040517f08c379a000000000000000000000000000000000000000000000000000000000815260040161102190613cfb565b60405180910390fd5b600061108c6110847fe48329057bfd03d55e49b547132e39cffd9c1820ad7b9d4c5307691425d15adf8989896040516020016110699493929190613b7c565b60405160208183030381529060405280519060200120612376565b858585612390565b9050611097816123bb565b86146110d8576040517f08c379a00000000000000000000000000000000000000000000000000000000081526004016110cf90613d5b565b60405180910390fd5b6110e28188612140565b50505050505050565b8342111561112e576040517f08c379a000000000000000000000000000000000000000000000000000000000815260040161112590613ddb565b60405180910390fd5b60007f000000000000000000000000000000000000000000000000000000000000000088888861115d8c6123bb565b8960405160200161117396959493929190613b1b565b604051602081830303815290604052805190602001209050600061119682612376565b905060006111a682878787612390565b90508973ffffffffffffffffffffffffffffffffffffffff168173ffffffffffffffffffffffffffffffffffffffff1614611216576040517f08c379a000000000000000000000000000000000000000000000000000000000815260040161120d90613e5b565b60405180910390fd5b6112218a8a8a6118be565b50505050505050505050565b6000600160008473ffffffffffffffffffffffffffffffffffffffff1673ffffffffffffffffffffffffffffffffffffffff16815260200190815260200160002060008373ffffffffffffffffffffffffffffffffffffffff1673ffffffffffffffffffffffffffffffffffffffff16815260200190815260200160002054905092915050565b6112bc6132c8565b600c60008473ffffffffffffffffffffffffffffffffffffffff1673ffffffffffffffffffffffffffffffffffffffff1681526020019081526020016000208263ffffffff1681548110611339577f4e487b7100000000000000000000000000000000000000000000000000000000600052603260045260246000fd5b906000526020600020016040518060400160405290816000820160009054906101000a900463ffffffff1663ffffffff1663ffffffff1681526020016000820160049054906101000a90047bffffffffffffffffffffffffffffffffffffffffffffffffffffffff167bffffffffffffffffffffffffffffffffffffffffffffffffffffffff167bffffffffffffffffffffffffffffffffffffffffffffffffffffffff1681525050905092915050565b6113f26118b6565b73ffffffffffffffffffffffffffffffffffffffff16611410610bd9565b73ffffffffffffffffffffffffffffffffffffffff1614611466576040517f08c379a000000000000000000000000000000000000000000000000000000000815260040161145d90613e9b565b60405180910390fd5b600073ffffffffffffffffffffffffffffffffffffffff168173ffffffffffffffffffffffffffffffffffffffff1614156114d6576040517f08c379a00000000000000000000000000000000000000000000000000000000081526004016114cd90613d7b565b60405180910390fd5b6114df8161225a565b50565b6114ec828261156f565b6114f4612419565b7bffffffffffffffffffffffffffffffffffffffffffffffffffffffff1661151a61072b565b111561155b576040517f08c379a000000000000000000000000000000000000000000000000000000000815260040161155290613e7b565b60405180910390fd5b611569600d6116cf8361243d565b50505050565b600073ffffffffffffffffffffffffffffffffffffffff168273ffffffffffffffffffffffffffffffffffffffff1614156115df576040517f08c379a00000000000000000000000000000000000000000000000000000000081526004016115d690613f9b565b60405180910390fd5b6115eb60008383612727565b80600260008282546115fd9190614077565b92505081905550806000808473ffffffffffffffffffffffffffffffffffffffff1673ffffffffffffffffffffffffffffffffffffffff16815260200190815260200160002060008282546116529190614077565b925050819055508173ffffffffffffffffffffffffffffffffffffffff16600073ffffffffffffffffffffffffffffffffffffffff167fddf252ad1be2c89b69c2b068fc378daa952ba7f163c4a11628f55a4df523b3ef836040516116b79190613fd6565b60405180910390a36116cb60008383612737565b5050565b600081836116dd9190614077565b905092915050565b60007bffffffffffffffffffffffffffffffffffffffffffffffffffffffff8016821115611748576040517f08c379a000000000000000000000000000000000000000000000000000000000815260040161173f90613ebb565b60405180910390fd5b819050919050565b600063ffffffff801682111561179b576040517f08c379a000000000000000000000000000000000000000000000000000000000815260040161179290613f1b565b60405180910390fd5b819050919050565b6117ae838383611888565b600073ffffffffffffffffffffffffffffffffffffffff168373ffffffffffffffffffffffffffffffffffffffff1614156117f9576117ec82612747565b6117f461279a565b611858565b600073ffffffffffffffffffffffffffffffffffffffff168273ffffffffffffffffffffffffffffffffffffffff1614156118445761183783612747565b61183f61279a565b611857565b61184d83612747565b61185682612747565b5b5b505050565b61186883838361188d565b611883611874846109c8565b61187d846109c8565b836127ae565b505050565b505050565b505050565b600081836118a091906140fe565b905092915050565b600081600001549050919050565b600033905090565b600073ffffffffffffffffffffffffffffffffffffffff168373ffffffffffffffffffffffffffffffffffffffff16141561192e576040517f08c379a000000000000000000000000000000000000000000000000000000000815260040161192590613f3b565b60405180910390fd5b600073ffffffffffffffffffffffffffffffffffffffff168273ffffffffffffffffffffffffffffffffffffffff16141561199e576040517f08c379a000000000000000000000000000000000000000000000000000000000815260040161199590613d9b565b60405180910390fd5b80600160008573ffffffffffffffffffffffffffffffffffffffff1673ffffffffffffffffffffffffffffffffffffffff16815260200190815260200160002060008473ffffffffffffffffffffffffffffffffffffffff1673ffffffffffffffffffffffffffffffffffffffff168152602001908152602001600020819055508173ffffffffffffffffffffffffffffffffffffffff168373ffffffffffffffffffffffffffffffffffffffff167f8c5be1e5ebec7d5bd14f71427d1e84f3dd0314c0f7b2291e5b200ac8c7c3b92583604051611a7c9190613fd6565b60405180910390a3505050565b6000611a95848461122d565b90507fffffffffffffffffffffffffffffffffffffffffffffffffffffffffffffffff8114611b0f5781811015611b01576040517f08c379a0000000000000000000000000000000000000000000000000000000008152600401611af890613dbb565b60405180910390fd5b611b0e84848484036118be565b5b50505050565b600073ffffffffffffffffffffffffffffffffffffffff168373ffffffffffffffffffffffffffffffffffffffff161415611b85576040517f08c379a0000000000000000000000000000000000000000000000000000000008152600401611b7c90613efb565b60405180910390fd5b600073ffffffffffffffffffffffffffffffffffffffff168273ffffffffffffffffffffffffffffffffffffffff161415611bf5576040517f08c379a0000000000000000000000000000000000000000000000000000000008152600401611bec90613cbb565b60405180910390fd5b611c00838383612727565b60008060008573ffffffffffffffffffffffffffffffffffffffff1673ffffffffffffffffffffffffffffffffffffffff16815260200190815260200160002054905081811015611c86576040517f08c379a0000000000000000000000000000000000000000000000000000000008152600401611c7d90613dfb565b60405180910390fd5b8181036000808673ffffffffffffffffffffffffffffffffffffffff1673ffffffffffffffffffffffffffffffffffffffff16815260200190815260200160002081905550816000808573ffffffffffffffffffffffffffffffffffffffff1673ffffffffffffffffffffffffffffffffffffffff1681526020019081526020016000206000828254611d199190614077565b925050819055508273ffffffffffffffffffffffffffffffffffffffff168473ffffffffffffffffffffffffffffffffffffffff167fddf252ad1be2c89b69c2b068fc378daa952ba7f163c4a11628f55a4df523b3ef84604051611d7d9190613fd6565b60405180910390a3611d90848484612737565b50505050565b60007f000000000000000000000000000000000000000000000000000000000000000073ffffffffffffffffffffffffffffffffffffffff163073ffffffffffffffffffffffffffffffffffffffff16148015611e1257507f000000000000000000000000000000000000000000000000000000000000000046145b15611e3f577f00000000000000000000000000000000000000000000000000000000000000009050611ead565b611eaa7f00000000000000000000000000000000000000000000000000000000000000007f00000000000000000000000000000000000000000000000000000000000000007f00000000000000000000000000000000000000000000000000000000000000006129a7565b90505b90565b6000808380549050905060005b81811015611f55576000611ed182846129e1565b905084868281548110611f0d577f4e487b7100000000000000000000000000000000000000000000000000000000600052603260045260246000fd5b9060005260206000200160000160009054906101000a900463ffffffff1663ffffffff161115611f3f57809250611f4f565b600181611f4c9190614077565b91505b50611ebd565b60008214611fdd5784600183611f6b91906140fe565b81548110611fa2577f4e487b7100000000000000000000000000000000000000000000000000000000600052603260045260246000fd5b9060005260206000200160000160049054906101000a90047bffffffffffffffffffffffffffffffffffffffffffffffffffffffff16611fe0565b60005b7bffffffffffffffffffffffffffffffffffffffffffffffffffffffff169250505092915050565b61201282826114e2565b5050565b6120208282612a07565b5050565b6000806000841161206a576040517f08c379a000000000000000000000000000000000000000000000000000000000815260040161206190613f5b565b60405180910390fd5b612072612a25565b8411156120b4576040517f08c379a00000000000000000000000000000000000000000000000000000000081526004016120ab90613c9b565b60405180910390fd5b60006120cc8585600001612a3690919063ffffffff16565b905083600001805490508114156120ea576000809250925050612139565b6001846001018281548110612128577f4e487b7100000000000000000000000000000000000000000000000000000000600052603260045260246000fd5b906000526020600020015492509250505b9250929050565b600061214b836109c8565b9050600061215884610a99565b905082600b60008673ffffffffffffffffffffffffffffffffffffffff1673ffffffffffffffffffffffffffffffffffffffff16815260200190815260200160002060006101000a81548173ffffffffffffffffffffffffffffffffffffffff021916908373ffffffffffffffffffffffffffffffffffffffff1602179055508273ffffffffffffffffffffffffffffffffffffffff168273ffffffffffffffffffffffffffffffffffffffff168573ffffffffffffffffffffffffffffffffffffffff167f3134e8a2e6d97e929a7e54011ea5485d7d196dd5f0ba4d4ef95803e8e3fc257f60405160405180910390a46122548284836127ae565b50505050565b6000600960009054906101000a900473ffffffffffffffffffffffffffffffffffffffff16905081600960006101000a81548173ffffffffffffffffffffffffffffffffffffffff021916908373ffffffffffffffffffffffffffffffffffffffff1602179055508173ffffffffffffffffffffffffffffffffffffffff168173ffffffffffffffffffffffffffffffffffffffff167f8be0079c531659141344cd1fd0a4f28419497f9722a3daafe3b4186f6b6457e060405160405180910390a35050565b600061232c6008612b5c565b6000612336612a25565b90507f8030e83b04d87bef53480e26263266d6ca66863aa8506aca6f2559d18aa1cb67816040516123679190613fd6565b60405180910390a18091505090565b6000612389612383611d96565b83612b72565b9050919050565b60008060006123a187878787612ba5565b915091506123ae81612cb2565b8192505050949350505050565b600080600a60008473ffffffffffffffffffffffffffffffffffffffff1673ffffffffffffffffffffffffffffffffffffffff1681526020019081526020016000209050612408816118a8565b915061241381612b5c565b50919050565b60007bffffffffffffffffffffffffffffffffffffffffffffffffffffffff905090565b600080600085805490509050600081146124d1578560018261245f91906140fe565b81548110612496577f4e487b7100000000000000000000000000000000000000000000000000000000600052603260045260246000fd5b9060005260206000200160000160049054906101000a90047bffffffffffffffffffffffffffffffffffffffffffffffffffffffff166124d4565b60005b7bffffffffffffffffffffffffffffffffffffffffffffffffffffffff16925061250283858763ffffffff16565b915060008111801561257b5750438660018361251e91906140fe565b81548110612555577f4e487b7100000000000000000000000000000000000000000000000000000000600052603260045260246000fd5b9060005260206000200160000160009054906101000a900463ffffffff1663ffffffff16145b1561262e57612589826116e5565b8660018361259791906140fe565b815481106125ce577f4e487b7100000000000000000000000000000000000000000000000000000000600052603260045260246000fd5b9060005260206000200160000160046101000a8154817bffffffffffffffffffffffffffffffffffffffffffffffffffffffff02191690837bffffffffffffffffffffffffffffffffffffffffffffffffffffffff16021790555061271e565b85604051806040016040528061264343611750565b63ffffffff168152602001612657856116e5565b7bffffffffffffffffffffffffffffffffffffffffffffffffffffffff168152509080600181540180825580915050600190039060005260206000200160009091909190915060008201518160000160006101000a81548163ffffffff021916908363ffffffff16021790555060208201518160000160046101000a8154817bffffffffffffffffffffffffffffffffffffffffffffffffffffffff02191690837bffffffffffffffffffffffffffffffffffffffffffffffffffffffff16021790555050505b50935093915050565b6127328383836117a3565b505050565b61274283838361185d565b505050565b612797600560008373ffffffffffffffffffffffffffffffffffffffff1673ffffffffffffffffffffffffffffffffffffffff16815260200190815260200160002061279283610a99565b613003565b50565b6127ac60066127a761072b565b613003565b565b8173ffffffffffffffffffffffffffffffffffffffff168373ffffffffffffffffffffffffffffffffffffffff16141580156127ea5750600081115b156129a257600073ffffffffffffffffffffffffffffffffffffffff168373ffffffffffffffffffffffffffffffffffffffff16146128c857600080612871600c60008773ffffffffffffffffffffffffffffffffffffffff1673ffffffffffffffffffffffffffffffffffffffff1681526020019081526020016000206118928561243d565b915091508473ffffffffffffffffffffffffffffffffffffffff167fdec2bacdd2f05b59de34da9b523dff8be42e5e38e818c82fdb0bae774387a72483836040516128bd929190613ff1565b60405180910390a250505b600073ffffffffffffffffffffffffffffffffffffffff168273ffffffffffffffffffffffffffffffffffffffff16146129a15760008061294a600c60008673ffffffffffffffffffffffffffffffffffffffff1673ffffffffffffffffffffffffffffffffffffffff1681526020019081526020016000206116cf8561243d565b915091508373ffffffffffffffffffffffffffffffffffffffff167fdec2bacdd2f05b59de34da9b523dff8be42e5e38e818c82fdb0bae774387a7248383604051612996929190613ff1565b60405180910390a250505b5b505050565b600083838346306040516020016129c2959493929190613bc1565b6040516020818303038152906040528051906020012090509392505050565b600060028284186129f291906140cd565b8284166129ff9190614077565b905092915050565b612a11828261307e565b612a1f600d6118928361243d565b50505050565b6000612a3160086118a8565b905090565b60008083805490501415612a4d5760009050612b56565b600080848054905090505b80821015612ad7576000612a6c83836129e1565b905084868281548110612aa8577f4e487b7100000000000000000000000000000000000000000000000000000000600052603260045260246000fd5b90600052602060002001541115612ac157809150612ad1565b600181612ace9190614077565b92505b50612a58565b600082118015612b3557508385600184612af191906140fe565b81548110612b28577f4e487b7100000000000000000000000000000000000000000000000000000000600052603260045260246000fd5b9060005260206000200154145b15612b5057600182612b4791906140fe565b92505050612b56565b81925050505b92915050565b6001816000016000828254019250508190555050565b60008282604051602001612b87929190613a93565b60405160208183030381529060405280519060200120905092915050565b6000807f7fffffffffffffffffffffffffffffff5d576e7357a4501ddfe92f46681b20a08360001c1115612be0576000600391509150612ca9565b601b8560ff1614158015612bf85750601c8560ff1614155b15612c0a576000600491509150612ca9565b600060018787878760405160008152602001604052604051612c2f9493929190613c14565b6020604051602081039080840390855afa158015612c51573d6000803e3d6000fd5b505050602060405103519050600073ffffffffffffffffffffffffffffffffffffffff168173ffffffffffffffffffffffffffffffffffffffff161415612ca057600060019250925050612ca9565b80600092509250505b94509492505050565b60006004811115612cec577f4e487b7100000000000000000000000000000000000000000000000000000000600052602160045260246000fd5b816004811115612d25577f4e487b7100000000000000000000000000000000000000000000000000000000600052602160045260246000fd5b1415612d3057613000565b60016004811115612d6a577f4e487b7100000000000000000000000000000000000000000000000000000000600052602160045260246000fd5b816004811115612da3577f4e487b7100000000000000000000000000000000000000000000000000000000600052602160045260246000fd5b1415612de4576040517f08c379a0000000000000000000000000000000000000000000000000000000008152600401612ddb90613c7b565b60405180910390fd5b60026004811115612e1e577f4e487b7100000000000000000000000000000000000000000000000000000000600052602160045260246000fd5b816004811115612e57577f4e487b7100000000000000000000000000000000000000000000000000000000600052602160045260246000fd5b1415612e98576040517f08c379a0000000000000000000000000000000000000000000000000000000008152600401612e8f90613d3b565b60405180910390fd5b60036004811115612ed2577f4e487b7100000000000000000000000000000000000000000000000000000000600052602160045260246000fd5b816004811115612f0b577f4e487b7100000000000000000000000000000000000000000000000000000000600052602160045260246000fd5b1415612f4c576040517f08c379a0000000000000000000000000000000000000000000000000000000008152600401612f4390613e1b565b60405180910390fd5b600480811115612f85577f4e487b7100000000000000000000000000000000000000000000000000000000600052602160045260246000fd5b816004811115612fbe577f4e487b7100000000000000000000000000000000000000000000000000000000600052602160045260246000fd5b1415612fff576040517f08c379a0000000000000000000000000000000000000000000000000000000008152600401612ff690613e3b565b60405180910390fd5b5b50565b600061300d612a25565b90508061301c84600001613255565b10156130795782600001819080600181540180825580915050600190039060005260206000200160009091909190915055826001018290806001815401808255809150506001900390600052602060002001600090919091909150555b505050565b600073ffffffffffffffffffffffffffffffffffffffff168273ffffffffffffffffffffffffffffffffffffffff1614156130ee576040517f08c379a00000000000000000000000000000000000000000000000000000000081526004016130e590613edb565b60405180910390fd5b6130fa82600083612727565b60008060008473ffffffffffffffffffffffffffffffffffffffff1673ffffffffffffffffffffffffffffffffffffffff16815260200190815260200160002054905081811015613180576040517f08c379a000000000000000000000000000000000000000000000000000000000815260040161317790613d1b565b60405180910390fd5b8181036000808573ffffffffffffffffffffffffffffffffffffffff1673ffffffffffffffffffffffffffffffffffffffff1681526020019081526020016000208190555081600260008282546131d791906140fe565b92505081905550600073ffffffffffffffffffffffffffffffffffffffff168373ffffffffffffffffffffffffffffffffffffffff167fddf252ad1be2c89b69c2b068fc378daa952ba7f163c4a11628f55a4df523b3ef8460405161323c9190613fd6565b60405180910390a361325083600084612737565b505050565b6000808280549050141561326c57600090506132c3565b816001838054905061327e91906140fe565b815481106132b5577f4e487b7100000000000000000000000000000000000000000000000000000000600052603260045260246000fd5b906000526020600020015490505b919050565b6040518060400160405280600063ffffffff16815260200160007bffffffffffffffffffffffffffffffffffffffffffffffffffffffff1681525090565b6000813590506133158161493d565b92915050565b60008135905061332a81614954565b92915050565b60008135905061333f8161496b565b92915050565b60008135905061335481614982565b92915050565b60008135905061336981614999565b92915050565b60006020828403121561338157600080fd5b600061338f84828501613306565b91505092915050565b600080604083850312156133ab57600080fd5b60006133b985828601613306565b92505060206133ca85828601613306565b9150509250929050565b6000806000606084860312156133e957600080fd5b60006133f786828701613306565b935050602061340886828701613306565b925050604061341986828701613330565b9150509250925092565b600080600080600080600060e0888a03121561343e57600080fd5b600061344c8a828b01613306565b975050602061345d8a828b01613306565b965050604061346e8a828b01613330565b955050606061347f8a828b01613330565b94505060806134908a828b0161335a565b93505060a06134a18a828b0161331b565b92505060c06134b28a828b0161331b565b91505092959891949750929550565b600080604083850312156134d457600080fd5b60006134e285828601613306565b92505060206134f385828601613330565b9150509250929050565b60008060008060008060c0878903121561351657600080fd5b600061352489828a01613306565b965050602061353589828a01613330565b955050604061354689828a01613330565b945050606061355789828a0161335a565b935050608061356889828a0161331b565b92505060a061357989828a0161331b565b9150509295509295509295565b6000806040838503121561359957600080fd5b60006135a785828601613306565b92505060206135b885828601613345565b9150509250929050565b6000602082840312156135d457600080fd5b60006135e284828501613330565b91505092915050565b6135f481614132565b82525050565b61360381614144565b82525050565b61361281614150565b82525050565b61362961362482614150565b61422e565b82525050565b600061363a82614050565b613644818561405b565b93506136548185602086016141c9565b61365d816142c5565b840191505092915050565b600061367560188361405b565b9150613680826142d6565b602082019050919050565b6000613698601d8361405b565b91506136a3826142ff565b602082019050919050565b60006136bb60238361405b565b91506136c682614328565b604082019050919050565b60006136de601f8361405b565b91506136e982614377565b602082019050919050565b6000613701601d8361405b565b915061370c826143a0565b602082019050919050565b600061372460228361405b565b915061372f826143c9565b604082019050919050565b6000613747601f8361405b565b915061375282614418565b602082019050919050565b600061376a60198361405b565b915061377582614441565b602082019050919050565b600061378d60268361405b565b91506137988261446a565b604082019050919050565b60006137b060228361405b565b91506137bb826144b9565b604082019050919050565b60006137d360028361406c565b91506137de82614508565b600282019050919050565b60006137f6601d8361405b565b915061380182614531565b602082019050919050565b6000613819601d8361405b565b91506138248261455a565b602082019050919050565b600061383c60268361405b565b915061384782614583565b604082019050919050565b600061385f60228361405b565b915061386a826145d2565b604082019050919050565b600061388260228361405b565b915061388d82614621565b604082019050919050565b60006138a5601e8361405b565b91506138b082614670565b602082019050919050565b60006138c860308361405b565b91506138d382614699565b604082019050919050565b60006138eb60208361405b565b91506138f6826146e8565b602082019050919050565b600061390e60278361405b565b915061391982614711565b604082019050919050565b600061393160218361405b565b915061393c82614760565b604082019050919050565b600061395460258361405b565b915061395f826147af565b604082019050919050565b600061397760268361405b565b9150613982826147fe565b604082019050919050565b600061399a60248361405b565b91506139a58261484d565b604082019050919050565b60006139bd60168361405b565b91506139c88261489c565b602082019050919050565b60006139e060258361405b565b91506139eb826148c5565b604082019050919050565b6000613a03601f8361405b565b9150613a0e82614914565b602082019050919050565b604082016000820151613a2f6000850182613a66565b506020820151613a426020850182613a48565b50505050565b613a518161417a565b82525050565b613a60816141a2565b82525050565b613a6f816141ac565b82525050565b613a7e816141ac565b82525050565b613a8d816141bc565b82525050565b6000613a9e826137c6565b9150613aaa8285613618565b602082019150613aba8284613618565b6020820191508190509392505050565b6000602082019050613adf60008301846135eb565b92915050565b6000602082019050613afa60008301846135fa565b92915050565b6000602082019050613b156000830184613609565b92915050565b600060c082019050613b306000830189613609565b613b3d60208301886135eb565b613b4a60408301876135eb565b613b576060830186613a57565b613b646080830185613a57565b613b7160a0830184613a57565b979650505050505050565b6000608082019050613b916000830187613609565b613b9e60208301866135eb565b613bab6040830185613a57565b613bb86060830184613a57565b95945050505050565b600060a082019050613bd66000830188613609565b613be36020830187613609565b613bf06040830186613609565b613bfd6060830185613a57565b613c0a60808301846135eb565b9695505050505050565b6000608082019050613c296000830187613609565b613c366020830186613a84565b613c436040830185613609565b613c506060830184613609565b95945050505050565b60006020820190508181036000830152613c73818461362f565b905092915050565b60006020820190508181036000830152613c9481613668565b9050919050565b60006020820190508181036000830152613cb48161368b565b9050919050565b60006020820190508181036000830152613cd4816136ae565b9050919050565b60006020820190508181036000830152613cf4816136d1565b9050919050565b60006020820190508181036000830152613d14816136f4565b9050919050565b60006020820190508181036000830152613d3481613717565b9050919050565b60006020820190508181036000830152613d548161373a565b9050919050565b60006020820190508181036000830152613d748161375d565b9050919050565b60006020820190508181036000830152613d9481613780565b9050919050565b60006020820190508181036000830152613db4816137a3565b9050919050565b60006020820190508181036000830152613dd4816137e9565b9050919050565b60006020820190508181036000830152613df48161380c565b9050919050565b60006020820190508181036000830152613e148161382f565b9050919050565b60006020820190508181036000830152613e3481613852565b9050919050565b60006020820190508181036000830152613e5481613875565b9050919050565b60006020820190508181036000830152613e7481613898565b9050919050565b60006020820190508181036000830152613e94816138bb565b9050919050565b60006020820190508181036000830152613eb4816138de565b9050919050565b60006020820190508181036000830152613ed481613901565b9050919050565b60006020820190508181036000830152613ef481613924565b9050919050565b60006020820190508181036000830152613f1481613947565b9050919050565b60006020820190508181036000830152613f348161396a565b9050919050565b60006020820190508181036000830152613f548161398d565b9050919050565b60006020820190508181036000830152613f74816139b0565b9050919050565b60006020820190508181036000830152613f94816139d3565b9050919050565b60006020820190508181036000830152613fb4816139f6565b9050919050565b6000604082019050613fd06000830184613a19565b92915050565b6000602082019050613feb6000830184613a57565b92915050565b60006040820190506140066000830185613a57565b6140136020830184613a57565b9392505050565b600060208201905061402f6000830184613a75565b92915050565b600060208201905061404a6000830184613a84565b92915050565b600081519050919050565b600082825260208201905092915050565b600081905092915050565b6000614082826141a2565b915061408d836141a2565b9250827fffffffffffffffffffffffffffffffffffffffffffffffffffffffffffffffff038211156140c2576140c1614238565b5b828201905092915050565b60006140d8826141a2565b91506140e3836141a2565b9250826140f3576140f2614267565b5b828204905092915050565b6000614109826141a2565b9150614114836141a2565b92508282101561412757614126614238565b5b828203905092915050565b600061413d8261415a565b9050919050565b60008115159050919050565b6000819050919050565b600073ffffffffffffffffffffffffffffffffffffffff82169050919050565b60007bffffffffffffffffffffffffffffffffffffffffffffffffffffffff82169050919050565b6000819050919050565b600063ffffffff82169050919050565b600060ff82169050919050565b60005b838110156141e75780820151818401526020810190506141cc565b838111156141f6576000848401525b50505050565b6000600282049050600182168061421457607f821691505b6020821081141561422857614227614296565b5b50919050565b6000819050919050565b7f4e487b7100000000000000000000000000000000000000000000000000000000600052601160045260246000fd5b7f4e487b7100000000000000000000000000000000000000000000000000000000600052601260045260246000fd5b7f4e487b7100000000000000000000000000000000000000000000000000000000600052602260045260246000fd5b6000601f19601f8301169050919050565b7f45434453413a20696e76616c6964207369676e61747572650000000000000000600082015250565b7f4552433230536e617073686f743a206e6f6e6578697374656e74206964000000600082015250565b7f45524332303a207472616e7366657220746f20746865207a65726f206164647260008201527f6573730000000000000000000000000000000000000000000000000000000000602082015250565b7f4552433230566f7465733a20626c6f636b206e6f7420796574206d696e656400600082015250565b7f4552433230566f7465733a207369676e61747572652065787069726564000000600082015250565b7f45524332303a206275726e20616d6f756e7420657863656564732062616c616e60008201527f6365000000000000000000000000000000000000000000000000000000000000602082015250565b7f45434453413a20696e76616c6964207369676e6174757265206c656e67746800600082015250565b7f4552433230566f7465733a20696e76616c6964206e6f6e636500000000000000600082015250565b7f4f776e61626c653a206e6577206f776e657220697320746865207a65726f206160008201527f6464726573730000000000000000000000000000000000000000000000000000602082015250565b7f45524332303a20617070726f766520746f20746865207a65726f20616464726560008201527f7373000000000000000000000000000000000000000000000000000000000000602082015250565b7f1901000000000000000000000000000000000000000000000000000000000000600082015250565b7f45524332303a20696e73756666696369656e7420616c6c6f77616e6365000000600082015250565b7f45524332305065726d69743a206578706972656420646561646c696e65000000600082015250565b7f45524332303a207472616e7366657220616d6f756e742065786365656473206260008201527f616c616e63650000000000000000000000000000000000000000000000000000602082015250565b7f45434453413a20696e76616c6964207369676e6174757265202773272076616c60008201527f7565000000000000000000000000000000000000000000000000000000000000602082015250565b7f45434453413a20696e76616c6964207369676e6174757265202776272076616c60008201527f7565000000000000000000000000000000000000000000000000000000000000602082015250565b7f45524332305065726d69743a20696e76616c6964207369676e61747572650000600082015250565b7f4552433230566f7465733a20746f74616c20737570706c79207269736b73206f60008201527f766572666c6f77696e6720766f74657300000000000000000000000000000000602082015250565b7f4f776e61626c653a2063616c6c6572206973206e6f7420746865206f776e6572600082015250565b7f53616665436173743a2076616c756520646f65736e27742066697420696e203260008201527f3234206269747300000000000000000000000000000000000000000000000000602082015250565b7f45524332303a206275726e2066726f6d20746865207a65726f2061646472657360008201527f7300000000000000000000000000000000000000000000000000000000000000602082015250565b7f45524332303a207472616e736665722066726f6d20746865207a65726f20616460008201527f6472657373000000000000000000000000000000000000000000000000000000602082015250565b7f53616665436173743a2076616c756520646f65736e27742066697420696e203360008201527f3220626974730000000000000000000000000000000000000000000000000000602082015250565b7f45524332303a20617070726f76652066726f6d20746865207a65726f2061646460008201527f7265737300000000000000000000000000000000000000000000000000000000602082015250565b7f4552433230536e617073686f743a206964206973203000000000000000000000600082015250565b7f45524332303a2064656372656173656420616c6c6f77616e63652062656c6f7760008201527f207a65726f000000000000000000000000000000000000000000000000000000602082015250565b7f45524332303a206d696e7420746f20746865207a65726f206164647265737300600082015250565b61494681614132565b811461495157600080fd5b50565b61495d81614150565b811461496857600080fd5b50565b614974816141a2565b811461497f57600080fd5b50565b61498b816141ac565b811461499657600080fd5b50565b6149a2816141bc565b81146149ad57600080fd5b5056fea2646970667358221220ce92b24606daf84570f797b75e1f6f2335c939f41a98ae14fae547cce9c7602664736f6c63430008040033",
  "linkReferences": {},
  "deployedLinkReferences": {}
}