{
  "_format": "hh-sol-artifact-1",
  "contractName": "Lottery",
  "sourceName": "contracts/BetTokens.sol",
  "abi": [
    {
      "inputs": [
        {
          "internalType": "contract DeBeToken",
          "name": "_token",
          "type": "address"
        }
      ],
      "stateMutability": "nonpayable",
      "type": "constructor"
    },
    {
      "anonymous": false,
      "inputs": [
        {
          "indexed": true,
          "internalType": "address",
          "name": "previousOwner",
          "type": "address"
        },
        {
          "indexed": true,
          "internalType": "address",
          "name": "newOwner",
          "type": "address"
        }
      ],
      "name": "OwnershipTransferred",
      "type": "event"
    },
    {
      "inputs": [
        {
          "internalType": "address",
          "name": "",
          "type": "address"
        }
      ],
      "name": "balances",
      "outputs": [
        {
          "internalType": "uint256",
          "name": "stakedAmount",
          "type": "uint256"
        },
        {
          "internalType": "string",
          "name": "betOnThis",
          "type": "string"
        },
        {
          "internalType": "bool",
          "name": "winner",
          "type": "bool"
        },
        {
          "internalType": "bool",
          "name": "rewarded",
          "type": "bool"
        },
        {
          "internalType": "uint256",
          "name": "blockNumber",
          "type": "uint256"
        }
      ],
      "stateMutability": "view",
      "type": "function"
    },
    {
      "inputs": [],
      "name": "calculatePrize",
      "outputs": [
        {
          "internalType": "uint256",
          "name": "winAmount",
          "type": "uint256"
        }
      ],
      "stateMutability": "view",
      "type": "function"
    },
    {
      "inputs": [],
      "name": "claimRewards",
      "outputs": [],
      "stateMutability": "nonpayable",
      "type": "function"
    },
    {
      "inputs": [],
      "name": "closeLottery",
      "outputs": [],
      "stateMutability": "nonpayable",
      "type": "function"
    },
    {
      "inputs": [],
      "name": "endLottery",
      "outputs": [],
      "stateMutability": "nonpayable",
      "type": "function"
    },
    {
      "inputs": [
        {
          "internalType": "string",
          "name": "_betOnThis",
          "type": "string"
        }
      ],
      "name": "enterLottery",
      "outputs": [],
      "stateMutability": "payable",
      "type": "function"
    },
    {
      "inputs": [
        {
          "internalType": "uint256",
          "name": "_betAmount",
          "type": "uint256"
        }
      ],
      "name": "getEntranceFee",
      "outputs": [
        {
          "internalType": "uint256",
          "name": "entryFee",
          "type": "uint256"
        }
      ],
      "stateMutability": "pure",
      "type": "function"
    },
    {
      "inputs": [
        {
          "internalType": "address",
          "name": "_user",
          "type": "address"
        }
      ],
      "name": "getUserTVL",
      "outputs": [
        {
          "internalType": "uint256",
          "name": "",
          "type": "uint256"
        }
      ],
      "stateMutability": "view",
      "type": "function"
    },
    {
      "inputs": [],
      "name": "getWinPool",
      "outputs": [],
      "stateMutability": "nonpayable",
      "type": "function"
    },
    {
      "inputs": [
        {
          "internalType": "string",
          "name": "_result",
          "type": "string"
        }
      ],
      "name": "getWinners",
      "outputs": [],
      "stateMutability": "nonpayable",
      "type": "function"
    },
    {
      "inputs": [],
      "name": "lottery_state",
      "outputs": [
        {
          "internalType": "enum Lottery.LOTTERY_STATE",
          "name": "",
          "type": "uint8"
        }
      ],
      "stateMutability": "view",
      "type": "function"
    },
    {
      "inputs": [],
      "name": "owner",
      "outputs": [
        {
          "internalType": "address",
          "name": "",
          "type": "address"
        }
      ],
      "stateMutability": "view",
      "type": "function"
    },
    {
      "inputs": [
        {
          "internalType": "uint256",
          "name": "",
          "type": "uint256"
        }
      ],
      "name": "playerList",
      "outputs": [
        {
          "internalType": "address payable",
          "name": "",
          "type": "address"
        }
      ],
      "stateMutability": "view",
      "type": "function"
    },
    {
      "inputs": [],
      "name": "renounceOwnership",
      "outputs": [],
      "stateMutability": "nonpayable",
      "type": "function"
    },
    {
      "inputs": [],
      "name": "startLottery",
      "outputs": [],
      "stateMutability": "nonpayable",
      "type": "function"
    },
    {
      "inputs": [],
      "name": "totalValueLocked",
      "outputs": [
        {
          "internalType": "uint256",
          "name": "",
          "type": "uint256"
        }
      ],
      "stateMutability": "view",
      "type": "function"
    },
    {
      "inputs": [
        {
          "internalType": "address",
          "name": "newOwner",
          "type": "address"
        }
      ],
      "name": "transferOwnership",
      "outputs": [],
      "stateMutability": "nonpayable",
      "type": "function"
    },
    {
      "inputs": [],
      "name": "updateStakeBeforeStart",
      "outputs": [],
      "stateMutability": "nonpayable",
      "type": "function"
    },
    {
      "inputs": [],
      "name": "winPool",
      "outputs": [
        {
          "internalType": "uint256",
          "name": "",
          "type": "uint256"
        }
      ],
      "stateMutability": "view",
      "type": "function"
    },
    {
      "inputs": [
        {
          "internalType": "uint256",
          "name": "",
          "type": "uint256"
        }
      ],
      "name": "winnerList",
      "outputs": [
        {
          "internalType": "address payable",
          "name": "",
          "type": "address"
        }
      ],
      "stateMutability": "view",
      "type": "function"
    }
  ],
  "bytecode": "0x60806040523480156200001157600080fd5b5060405162002b9438038062002b94833981810160405281019062000037919062000182565b620000576200004b6200009f60201b60201c565b620000a760201b60201c565b80600160006101000a81548173ffffffffffffffffffffffffffffffffffffffff021916908373ffffffffffffffffffffffffffffffffffffffff1602179055505062000210565b600033905090565b60008060009054906101000a900473ffffffffffffffffffffffffffffffffffffffff169050816000806101000a81548173ffffffffffffffffffffffffffffffffffffffff021916908373ffffffffffffffffffffffffffffffffffffffff1602179055508173ffffffffffffffffffffffffffffffffffffffff168173ffffffffffffffffffffffffffffffffffffffff167f8be0079c531659141344cd1fd0a4f28419497f9722a3daafe3b4186f6b6457e060405160405180910390a35050565b6000815190506200017c81620001f6565b92915050565b6000602082840312156200019557600080fd5b6000620001a5848285016200016b565b91505092915050565b6000620001bb82620001d6565b9050919050565b6000620001cf82620001ae565b9050919050565b600073ffffffffffffffffffffffffffffffffffffffff82169050919050565b6200020181620001c2565b81146200020d57600080fd5b50565b61297480620002206000396000f3fe60806040526004361061011f5760003560e01c80637fe23f62116100a057806395a4c5251161006457806395a4c5251461036e578063a60898ae14610397578063ae6d9073146103ae578063ec18154e146103eb578063f2fde38b146104165761011f565b80637fe23f621461028557806381447999146102b05780638731c630146102db5780638da5cb5b146103185780638dedd3cc146103435761011f565b8063372500ab116100e7578063372500ab146101c65780635578027e146101dd57806364c96eef1461021a5780636fd0981614610257578063715018a61461026e5761011f565b80631481a2db146101245780631593a8c714610140578063160344e21461015757806327e235e31461016e57806336b56ca2146101af575b600080fd5b61013e60048036038101906101399190611ea3565b61043f565b005b34801561014c57600080fd5b50610155610886565b005b34801561016357600080fd5b5061016c610955565b005b34801561017a57600080fd5b5061019560048036038101906101909190611e51565b610ae6565b6040516101a6959493929190612310565b60405180910390f35b3480156101bb57600080fd5b506101c4610bbe565b005b3480156101d257600080fd5b506101db610de8565b005b3480156101e957600080fd5b5061020460048036038101906101ff9190611ee4565b6110ba565b604051610211919061217f565b60405180910390f35b34801561022657600080fd5b50610241600480360381019061023c9190611e51565b6110f9565b60405161024e91906122f5565b60405180910390f35b34801561026357600080fd5b5061026c61114e565b005b34801561027a57600080fd5b5061028361121d565b005b34801561029157600080fd5b5061029a6112a5565b6040516102a791906122f5565b60405180910390f35b3480156102bc57600080fd5b506102c56112ab565b6040516102d291906121fa565b60405180910390f35b3480156102e757600080fd5b5061030260048036038101906102fd9190611ee4565b6112be565b60405161030f91906122f5565b60405180910390f35b34801561032457600080fd5b5061032d611329565b60405161033a9190612164565b60405180910390f35b34801561034f57600080fd5b50610358611352565b60405161036591906122f5565b60405180910390f35b34801561037a57600080fd5b5061039560048036038101906103909190611ea3565b611469565b005b3480156103a357600080fd5b506103ac611919565b005b3480156103ba57600080fd5b506103d560048036038101906103d09190611ee4565b611afe565b6040516103e2919061217f565b60405180910390f35b3480156103f757600080fd5b50610400611b3d565b60405161040d91906122f5565b60405180910390f35b34801561042257600080fd5b5061043d60048036038101906104389190611e51565b611b43565b005b60006002811115610479577f4e487b7100000000000000000000000000000000000000000000000000000000600052602160045260246000fd5b600760009054906101000a900460ff1660028111156104c1577f4e487b7100000000000000000000000000000000000000000000000000000000600052602160045260246000fd5b146104cb57600080fd5b6000339050600034905060006104e0826112be565b9050600081836104f091906124dd565b9050600160009054906101000a900473ffffffffffffffffffffffffffffffffffffffff1673ffffffffffffffffffffffffffffffffffffffff166323b872dd8530856040518463ffffffff1660e01b81526004016105519392919061219a565b602060405180830381600087803b15801561056b57600080fd5b505af115801561057f573d6000803e3d6000fd5b505050506040513d601f19601f820116820180604052508101906105a39190611e7a565b50600160009054906101000a900473ffffffffffffffffffffffffffffffffffffffff1673ffffffffffffffffffffffffffffffffffffffff166323b872dd8530846040518463ffffffff1660e01b81526004016106039392919061219a565b602060405180830381600087803b15801561061d57600080fd5b505af1158015610631573d6000803e3d6000fd5b505050506040513d601f19601f820116820180604052508101906106559190611e7a565b506003849080600181540180825580915050600190039060005260206000200160009091909190916101000a81548173ffffffffffffffffffffffffffffffffffffffff021916908373ffffffffffffffffffffffffffffffffffffffff16021790555080600260008673ffffffffffffffffffffffffffffffffffffffff1673ffffffffffffffffffffffffffffffffffffffff168152602001908152602001600020600001600082825461070b91906123fc565b9250508190555084600260008673ffffffffffffffffffffffffffffffffffffffff1673ffffffffffffffffffffffffffffffffffffffff1681526020019081526020016000206001019080519060200190610768929190611d07565b5043600260008673ffffffffffffffffffffffffffffffffffffffff1673ffffffffffffffffffffffffffffffffffffffff168152602001908152602001600020600301819055506000600260008673ffffffffffffffffffffffffffffffffffffffff1673ffffffffffffffffffffffffffffffffffffffff16815260200190815260200160002060020160006101000a81548160ff0219169083151502179055506000600260008673ffffffffffffffffffffffffffffffffffffffff1673ffffffffffffffffffffffffffffffffffffffff16815260200190815260200160002060020160016101000a81548160ff021916908315150217905550806006600082825461087891906123fc565b925050819055505050505050565b61088e611c3b565b73ffffffffffffffffffffffffffffffffffffffff166108ac611329565b73ffffffffffffffffffffffffffffffffffffffff1614610902576040517f08c379a00000000000000000000000000000000000000000000000000000000081526004016108f990612275565b60405180910390fd5b6002600760006101000a81548160ff0219169083600281111561094e577f4e487b7100000000000000000000000000000000000000000000000000000000600052602160045260246000fd5b0217905550565b61095d611c3b565b73ffffffffffffffffffffffffffffffffffffffff1661097b611329565b73ffffffffffffffffffffffffffffffffffffffff16146109d1576040517f08c379a00000000000000000000000000000000000000000000000000000000081526004016109c890612275565b60405180910390fd5b60016002811115610a0b577f4e487b7100000000000000000000000000000000000000000000000000000000600052602160045260246000fd5b600760009054906101000a900460ff166002811115610a53577f4e487b7100000000000000000000000000000000000000000000000000000000600052602160045260246000fd5b14610a93576040517f08c379a0000000000000000000000000000000000000000000000000000000008152600401610a8a906122d5565b60405180910390fd5b6000600760006101000a81548160ff02191690836002811115610adf577f4e487b7100000000000000000000000000000000000000000000000000000000600052602160045260246000fd5b0217905550565b6002602052806000526040600020600091509050806000015490806001018054610b0f906125d2565b80601f0160208091040260200160405190810160405280929190818152602001828054610b3b906125d2565b8015610b885780601f10610b5d57610100808354040283529160200191610b88565b820191906000526020600020905b815481529060010190602001808311610b6b57829003601f168201915b5050505050908060020160009054906101000a900460ff16908060020160019054906101000a900460ff16908060030154905085565b610bc6611c3b565b73ffffffffffffffffffffffffffffffffffffffff16610be4611329565b73ffffffffffffffffffffffffffffffffffffffff1614610c3a576040517f08c379a0000000000000000000000000000000000000000000000000000000008152600401610c3190612275565b60405180910390fd5b600280811115610c73577f4e487b7100000000000000000000000000000000000000000000000000000000600052602160045260246000fd5b600760009054906101000a900460ff166002811115610cbb577f4e487b7100000000000000000000000000000000000000000000000000000000600052602160045260246000fd5b14610cfb576040517f08c379a0000000000000000000000000000000000000000000000000000000008152600401610cf2906122b5565b60405180910390fd5b60005b600480549050811015610ddd576002600060048381548110610d49577f4e487b7100000000000000000000000000000000000000000000000000000000600052603260045260246000fd5b9060005260206000200160009054906101000a900473ffffffffffffffffffffffffffffffffffffffff1673ffffffffffffffffffffffffffffffffffffffff1673ffffffffffffffffffffffffffffffffffffffff1681526020019081526020016000206000015460056000828254610dc391906123fc565b925050819055508080610dd590612635565b915050610cfe565b50610de661114e565b565b600033905060016002811115610e27577f4e487b7100000000000000000000000000000000000000000000000000000000600052602160045260246000fd5b600760009054906101000a900460ff166002811115610e6f577f4e487b7100000000000000000000000000000000000000000000000000000000600052602160045260246000fd5b14610e7957600080fd5b60011515600260008373ffffffffffffffffffffffffffffffffffffffff1673ffffffffffffffffffffffffffffffffffffffff16815260200190815260200160002060020160009054906101000a900460ff16151514610f0f576040517f08c379a0000000000000000000000000000000000000000000000000000000008152600401610f0690612215565b60405180910390fd5b60001515600260008373ffffffffffffffffffffffffffffffffffffffff1673ffffffffffffffffffffffffffffffffffffffff16815260200190815260200160002060020160019054906101000a900460ff16151514610fa5576040517f08c379a0000000000000000000000000000000000000000000000000000000008152600401610f9c90612255565b60405180910390fd5b600160009054906101000a900473ffffffffffffffffffffffffffffffffffffffff1673ffffffffffffffffffffffffffffffffffffffff1663a9059cbb82610fec611352565b6040518363ffffffff1660e01b81526004016110099291906121d1565b602060405180830381600087803b15801561102357600080fd5b505af1158015611037573d6000803e3d6000fd5b505050506040513d601f19601f8201168201806040525081019061105b9190611e7a565b506001600260008373ffffffffffffffffffffffffffffffffffffffff1673ffffffffffffffffffffffffffffffffffffffff16815260200190815260200160002060020160016101000a81548160ff02191690831515021790555050565b600481815481106110ca57600080fd5b906000526020600020016000915054906101000a900473ffffffffffffffffffffffffffffffffffffffff1681565b60008060009050600260008473ffffffffffffffffffffffffffffffffffffffff1673ffffffffffffffffffffffffffffffffffffffff16815260200190815260200160002060000154905080915050919050565b611156611c3b565b73ffffffffffffffffffffffffffffffffffffffff16611174611329565b73ffffffffffffffffffffffffffffffffffffffff16146111ca576040517f08c379a00000000000000000000000000000000000000000000000000000000081526004016111c190612275565b60405180910390fd5b6001600760006101000a81548160ff02191690836002811115611216577f4e487b7100000000000000000000000000000000000000000000000000000000600052602160045260246000fd5b0217905550565b611225611c3b565b73ffffffffffffffffffffffffffffffffffffffff16611243611329565b73ffffffffffffffffffffffffffffffffffffffff1614611299576040517f08c379a000000000000000000000000000000000000000000000000000000000815260040161129090612275565b60405180910390fd5b6112a36000611c43565b565b60055481565b600760009054906101000a900460ff1681565b6000806032905080831015611308576040517f08c379a00000000000000000000000000000000000000000000000000000000081526004016112ff90612295565b60405180910390fd5b60646005846113179190612483565b6113219190612452565b915050919050565b60008060009054906101000a900473ffffffffffffffffffffffffffffffffffffffff16905090565b60008033905060016004805490501415611370576006549150611465565b6001600480549050111561145f576000600554612710600260008573ffffffffffffffffffffffffffffffffffffffff1673ffffffffffffffffffffffffffffffffffffffff168152602001908152602001600020600001546113d39190612483565b6113dd9190612452565b9050612710816005546006546113f391906124dd565b6113fd9190612483565b6114079190612452565b9250600260008373ffffffffffffffffffffffffffffffffffffffff1673ffffffffffffffffffffffffffffffffffffffff168152602001908152602001600020600001548361145791906123fc565b925050611464565b600091505b5b5090565b611471611c3b565b73ffffffffffffffffffffffffffffffffffffffff1661148f611329565b73ffffffffffffffffffffffffffffffffffffffff16146114e5576040517f08c379a00000000000000000000000000000000000000000000000000000000081526004016114dc90612275565b60405180910390fd5b60028081111561151e577f4e487b7100000000000000000000000000000000000000000000000000000000600052602160045260246000fd5b600760009054906101000a900460ff166002811115611566577f4e487b7100000000000000000000000000000000000000000000000000000000600052602160045260246000fd5b146115a6576040517f08c379a000000000000000000000000000000000000000000000000000000000815260040161159d906122b5565b60405180910390fd5b60005b60038054905081101561190d57816040516020016115c79190612136565b60405160208183030381529060405280519060200120600260006003848154811061161b577f4e487b7100000000000000000000000000000000000000000000000000000000600052603260045260246000fd5b9060005260206000200160009054906101000a900473ffffffffffffffffffffffffffffffffffffffff1673ffffffffffffffffffffffffffffffffffffffff1673ffffffffffffffffffffffffffffffffffffffff168152602001908152602001600020600101604051602001611693919061214d565b60405160208183030381529060405280519060200120141561183a57600160026000600384815481106116ef577f4e487b7100000000000000000000000000000000000000000000000000000000600052603260045260246000fd5b9060005260206000200160009054906101000a900473ffffffffffffffffffffffffffffffffffffffff1673ffffffffffffffffffffffffffffffffffffffff1673ffffffffffffffffffffffffffffffffffffffff16815260200190815260200160002060020160006101000a81548160ff0219169083151502179055506004600382815481106117aa577f4e487b7100000000000000000000000000000000000000000000000000000000600052603260045260246000fd5b9060005260206000200160009054906101000a900473ffffffffffffffffffffffffffffffffffffffff169080600181540180825580915050600190039060005260206000200160009091909190916101000a81548173ffffffffffffffffffffffffffffffffffffffff021916908373ffffffffffffffffffffffffffffffffffffffff1602179055506118fa565b6000600260006003848154811061187a577f4e487b7100000000000000000000000000000000000000000000000000000000600052603260045260246000fd5b9060005260206000200160009054906101000a900473ffffffffffffffffffffffffffffffffffffffff1673ffffffffffffffffffffffffffffffffffffffff1673ffffffffffffffffffffffffffffffffffffffff16815260200190815260200160002060020160006101000a81548160ff0219169083151502179055505b808061190590612635565b9150506115a9565b50611916610bbe565b50565b60006002811115611953577f4e487b7100000000000000000000000000000000000000000000000000000000600052602160045260246000fd5b600760009054906101000a900460ff16600281111561199b577f4e487b7100000000000000000000000000000000000000000000000000000000600052602160045260246000fd5b146119a557600080fd5b60003390506000600260008373ffffffffffffffffffffffffffffffffffffffff1673ffffffffffffffffffffffffffffffffffffffff168152602001908152602001600020600001549050600160009054906101000a900473ffffffffffffffffffffffffffffffffffffffff1673ffffffffffffffffffffffffffffffffffffffff1663a9059cbb83836040518363ffffffff1660e01b8152600401611a4e9291906121d1565b602060405180830381600087803b158015611a6857600080fd5b505af1158015611a7c573d6000803e3d6000fd5b505050506040513d601f19601f82011682018060405250810190611aa09190611e7a565b5080600260008473ffffffffffffffffffffffffffffffffffffffff1673ffffffffffffffffffffffffffffffffffffffff1681526020019081526020016000206000016000828254611af391906124dd565b925050819055505050565b60038181548110611b0e57600080fd5b906000526020600020016000915054906101000a900473ffffffffffffffffffffffffffffffffffffffff1681565b60065481565b611b4b611c3b565b73ffffffffffffffffffffffffffffffffffffffff16611b69611329565b73ffffffffffffffffffffffffffffffffffffffff1614611bbf576040517f08c379a0000000000000000000000000000000000000000000000000000000008152600401611bb690612275565b60405180910390fd5b600073ffffffffffffffffffffffffffffffffffffffff168173ffffffffffffffffffffffffffffffffffffffff161415611c2f576040517f08c379a0000000000000000000000000000000000000000000000000000000008152600401611c2690612235565b60405180910390fd5b611c3881611c43565b50565b600033905090565b60008060009054906101000a900473ffffffffffffffffffffffffffffffffffffffff169050816000806101000a81548173ffffffffffffffffffffffffffffffffffffffff021916908373ffffffffffffffffffffffffffffffffffffffff1602179055508173ffffffffffffffffffffffffffffffffffffffff168173ffffffffffffffffffffffffffffffffffffffff167f8be0079c531659141344cd1fd0a4f28419497f9722a3daafe3b4186f6b6457e060405160405180910390a35050565b828054611d13906125d2565b90600052602060002090601f016020900481019282611d355760008555611d7c565b82601f10611d4e57805160ff1916838001178555611d7c565b82800160010185558215611d7c579182015b82811115611d7b578251825591602001919060010190611d60565b5b509050611d899190611d8d565b5090565b5b80821115611da6576000816000905550600101611d8e565b5090565b6000611dbd611db88461238f565b61236a565b905082815260208101848484011115611dd557600080fd5b611de0848285612590565b509392505050565b600081359050611df7816128f9565b92915050565b600081519050611e0c81612910565b92915050565b600082601f830112611e2357600080fd5b8135611e33848260208601611daa565b91505092915050565b600081359050611e4b81612927565b92915050565b600060208284031215611e6357600080fd5b6000611e7184828501611de8565b91505092915050565b600060208284031215611e8c57600080fd5b6000611e9a84828501611dfd565b91505092915050565b600060208284031215611eb557600080fd5b600082013567ffffffffffffffff811115611ecf57600080fd5b611edb84828501611e12565b91505092915050565b600060208284031215611ef657600080fd5b6000611f0484828501611e3c565b91505092915050565b611f1681612523565b82525050565b611f2581612511565b82525050565b611f3481612535565b82525050565b611f438161257e565b82525050565b6000611f54826123d5565b611f5e81856123e0565b9350611f6e81856020860161259f565b611f7781612769565b840191505092915050565b6000611f8d826123d5565b611f9781856123f1565b9350611fa781856020860161259f565b80840191505092915050565b60008154611fc0816125d2565b611fca81866123f1565b94506001821660008114611fe55760018114611ff657612029565b60ff19831686528186019350612029565b611fff856123c0565b60005b8381101561202157815481890152600182019150602081019050612002565b838801955050505b50505092915050565b600061203f6014836123e0565b915061204a8261277a565b602082019050919050565b60006120626026836123e0565b915061206d826127a3565b604082019050919050565b60006120856024836123e0565b9150612090826127f2565b604082019050919050565b60006120a86020836123e0565b91506120b382612841565b602082019050919050565b60006120cb6017836123e0565b91506120d68261286a565b602082019050919050565b60006120ee601d836123e0565b91506120f982612893565b602082019050919050565b6000612111601e836123e0565b915061211c826128bc565b602082019050919050565b61213081612574565b82525050565b60006121428284611f82565b915081905092915050565b60006121598284611fb3565b915081905092915050565b60006020820190506121796000830184611f1c565b92915050565b60006020820190506121946000830184611f0d565b92915050565b60006060820190506121af6000830186611f1c565b6121bc6020830185611f1c565b6121c96040830184612127565b949350505050565b60006040820190506121e66000830185611f1c565b6121f36020830184612127565b9392505050565b600060208201905061220f6000830184611f3a565b92915050565b6000602082019050818103600083015261222e81612032565b9050919050565b6000602082019050818103600083015261224e81612055565b9050919050565b6000602082019050818103600083015261226e81612078565b9050919050565b6000602082019050818103600083015261228e8161209b565b9050919050565b600060208201905081810360008301526122ae816120be565b9050919050565b600060208201905081810360008301526122ce816120e1565b9050919050565b600060208201905081810360008301526122ee81612104565b9050919050565b600060208201905061230a6000830184612127565b92915050565b600060a0820190506123256000830188612127565b81810360208301526123378187611f49565b90506123466040830186611f2b565b6123536060830185611f2b565b6123606080830184612127565b9695505050505050565b6000612374612385565b90506123808282612604565b919050565b6000604051905090565b600067ffffffffffffffff8211156123aa576123a961273a565b5b6123b382612769565b9050602081019050919050565b60008190508160005260206000209050919050565b600081519050919050565b600082825260208201905092915050565b600081905092915050565b600061240782612574565b915061241283612574565b9250827fffffffffffffffffffffffffffffffffffffffffffffffffffffffffffffffff038211156124475761244661267e565b5b828201905092915050565b600061245d82612574565b915061246883612574565b925082612478576124776126ad565b5b828204905092915050565b600061248e82612574565b915061249983612574565b9250817fffffffffffffffffffffffffffffffffffffffffffffffffffffffffffffffff04831182151516156124d2576124d161267e565b5b828202905092915050565b60006124e882612574565b91506124f383612574565b9250828210156125065761250561267e565b5b828203905092915050565b600061251c82612554565b9050919050565b600061252e82612554565b9050919050565b60008115159050919050565b600081905061254f826128e5565b919050565b600073ffffffffffffffffffffffffffffffffffffffff82169050919050565b6000819050919050565b600061258982612541565b9050919050565b82818337600083830152505050565b60005b838110156125bd5780820151818401526020810190506125a2565b838111156125cc576000848401525b50505050565b600060028204905060018216806125ea57607f821691505b602082108114156125fe576125fd61270b565b5b50919050565b61260d82612769565b810181811067ffffffffffffffff8211171561262c5761262b61273a565b5b80604052505050565b600061264082612574565b91507fffffffffffffffffffffffffffffffffffffffffffffffffffffffffffffffff8214156126735761267261267e565b5b600182019050919050565b7f4e487b7100000000000000000000000000000000000000000000000000000000600052601160045260246000fd5b7f4e487b7100000000000000000000000000000000000000000000000000000000600052601260045260246000fd5b7f4e487b7100000000000000000000000000000000000000000000000000000000600052602160045260246000fd5b7f4e487b7100000000000000000000000000000000000000000000000000000000600052602260045260246000fd5b7f4e487b7100000000000000000000000000000000000000000000000000000000600052604160045260246000fd5b6000601f19601f8301169050919050565b7f596f7520617265206e6f7420612077696e6e6572000000000000000000000000600082015250565b7f4f776e61626c653a206e6577206f776e657220697320746865207a65726f206160008201527f6464726573730000000000000000000000000000000000000000000000000000602082015250565b7f596f75206861766520636c61696d656420746865207265776172647320616c7260008201527f6561647900000000000000000000000000000000000000000000000000000000602082015250565b7f4f776e61626c653a2063616c6c6572206973206e6f7420746865206f776e6572600082015250565b7f4d696e696d756d20626574206e6f742072656163686564000000000000000000600082015250565b7f4c6f7474657279206e6565647320746f2066696e697368206669727374000000600082015250565b7f43616e27742073746172742061206e6577206c6f747465727920796574210000600082015250565b600381106128f6576128f56126dc565b5b50565b61290281612511565b811461290d57600080fd5b50565b61291981612535565b811461292457600080fd5b50565b61293081612574565b811461293b57600080fd5b5056fea2646970667358221220e26bff40690fd3ebdd946da6ee126fa7f18548db76c0579855ef85d4d8f6095964736f6c63430008040033",
  "linkReferences": {},
  "deployedLinkReferences": {}
}